:100000000C942A000C9447000C9447000C94470071
:100010000C9447000C9447000C9447000C94470044
:100020000C9447000C9447000C9447000C94470034
:100030000C9447000C9447000C9447000C94470024
:100040000C9447000C9447000C9447000C94470014
:100050000C94470011241FBECFE5D4E0DEBFCDBF16
:1000600010E0A0E6B0E0E8E4F3E002C005900D92F5
:10007000A437B107D9F720E0A4E7B0E001C01D9292
:10008000AA37B207E1F70E945C010C94A2010C941C
:100090000000CF93DF93CDB7DEB764970FB6F89427
:1000A000DEBF0FBECDBF24E1E0E6F0E0DE01119639
:1000B00001900D922A95E1F7880F991FE1E0F0E099
:1000C000EC0FFD1FE80FF91F808182BB660F771FC1
:1000D000E1E0F0E0EC0FFD1FE60FF71F808185BB2C
:1000E00064960FB6F894DEBF0FBECDBFDF91CF91FF
:1000F00008958F929F92AF92BF92CF92DF92EF922C
:10010000FF920F931F93CF93DF938C01EB018A3003
:1001100091050CF455C06A30710564F12AE030E0B5
:10012000B9010E947A018B017C01CE01B9010E94C4
:100130007A016B014C01CAE0D0E042E0A42EBB245E
:10014000B394A8BAB401C7010E9449008FEC97E0AC
:100150000197F1F700C00000B8BAB601C8010E94CB
:1001600049008FEC97E00197F1F700C0000021975C
:1001700041F770C06AE070E00E947A017B015C0187
:100180000AE010E032E0C32EDD24D394C8BABE01E9
:10019000C5010E9449008FEC97E00197F1F700C07C
:1001A0000000D8BABE01C7010E9449008FEC97E059
:1001B0000197F1F700C000000150110939F74AC05A
:1001C0006A30710534F1CB016AE070E00E947A0177
:1001D0007B015C01CAE0D0E022E0C22EDD24D39492
:1001E000C8BAB801C5010E9449008FEC97E0019799
:1001F000F1F700C00000D8BAB801C7010E94490059
:100200008FEC97E00197F1F700C00000219741F7CC
:1002100021C08AE0E82EF12C92E0C92EDD24D3948F
:10022000C8BAB801CE010E9449008FEC97E001974F
:10023000F1F700C00000D8BAB801CE010E94490011
:100240008FEC97E00197F1F700C0000091E0E91A08
:10025000F10831F7DF91CF911F910F91FF90EF904F
:10026000DF90CF90BF90AF909F908F900895809136
:1002700078009091790001968C33910529F0909344
:100280007900809378000DC0109279001092780068
:1002900080917600909177000196909377008093FB
:1002A00076008091760090917700489721F4109223
:1002B000770010927600089581E081BB12BA84BB6A
:1002C00015BA87BB609176007091770080917800B5
:1002D000909179000E94790080917400909175004E
:1002E00001969093750080937400CC9759F70E9403
:1002F0003701E8CF97FB072E16F4009407D077FD5F
:1003000009D00E948E0107FC05D03EF4909581959E
:100310009F4F0895709561957F4F0895AA1BBB1B51
:1003200051E107C0AA1FBB1FA617B70710F0A61BF5
:10033000B70B881F991F5A95A9F780959095BC0116
:08034000CD010895F894FFCFF0
:100348000200CF0029004900C50051001100CB0070
:040358000000410060
:00000001FF
