:100000000C942A000C9447000C9447000C94470071
:100010000C9447000C9447000C9447000C94470044
:100020000C9447000C9447000C9447000C94470034
:100030000C9447000C9447000C9447000C94470024
:100040000C9447000C9447000C9447000C94470014
:100050000C94470011241FBECFE5D4E0DEBFCDBF16
:1000600010E0A0E6B0E0E0EAF2E002C005900D92F8
:10007000A437B107D9F720E0A4E7B0E001C01D9292
:10008000AA37B207E1F70E9408010C944E010C94C4
:100090000000CF93DF93CDB7DEB764970FB6F89427
:1000A000DEBF0FBECDBF24E1E0E6F0E0DE01119639
:1000B00001900D922A95E1F7880F991FE1E0F0E099
:1000C000EC0FFD1FE80FF91F808182BB660F771FC1
:1000D000E1E0F0E0EC0FFD1FE60FF71F808185BB2C
:1000E00064960FB6F894DEBF0FBECDBFDF91CF91FF
:1000F00008958F929F92AF92BF92CF92DF92EF922C
:10010000FF920F931F93CF93DF93FC019B016AE053
:1001100070E00E942601EA30F10514F47F0101C06D
:100120007C01C9016AE070E00E9426012A30310595
:1001300014F4690101C06C01CF016AE070E00E9413
:1001400026013A971CF0D62FC72F02C0D0E0C0E09E
:10015000C9016AE070E00E9426012A30310514F0DE
:100160008B0102C000E010E08AE0A82EB12C92E0E2
:10017000892E9924939488BAB601C7010E94490038
:100180008FEC97E00197F1F700C0000098BAB80132
:100190008D2F9C2F0E9449008FEC97E00197F1F77B
:1001A00000C0000091E0A91AB10829F7DF91CF91B2
:1001B0001F910F91FF90EF90DF90CF90BF90AF9085
:1001C0009F908F900895809178009091790001968A
:1001D0008C33910529F090937900809378000DC0BD
:1001E00010927900109278008091760090917700BB
:1001F000019690937700809376008091760090919D
:100200007700489721F410927700109276000895B5
:1002100081E081BB12BA84BB15BA87BB60917600BE
:100220007091770080917800909179000E94790018
:100230008091740090917500019690937500809361
:100240007400CC9759F70E94E300E8CF97FB072E84
:1002500016F4009407D077FD09D00E943A0107FCFC
:1002600005D03EF4909581959F4F089570956195C6
:100270007F4F0895AA1BBB1B51E107C0AA1FBB1FDC
:10028000A617B70710F0A61BB70B881F991F5A9522
:10029000A9F780959095BC01CD010895F894FFCF02
:1002A0000200CF0029004900C50051001100CB0019
:0402B0000000410009
:00000001FF
